:020000040800F2
:10000000302D0020551300085D1300085F13000811
:100010006113000863130008651300080000000066
:10002000000000000000000000000000671300084E
:1000300069130008000000006B1300086D1300082E
:100040006F1300086F1300086F1300086F13000888
:100050006F1300086F1300086F130008972500083E
:100060006F1300086F1300086F1300086F13000868
:100070006F1300086F1300086F1300086F13000858
:100080006F1300086F1300086F1300086F13000848
:100090006F1300086F1300086F1300086F13000838
:1000A0006F1300086F1300086F1300086F13000828
:1000B0006F1300086F1300086F1300086F13000818
:1000C0006F1300086F1300086F1300086F13000808
:1000D0006F1300084D1500086D1600086F13000817
:1000E0006F1300086F1300086F1300086F130008E8
:1000F0006F1300086F1300086F1300086F130008D8
:100100006F1300086F1300086F1300086F130008C7
:100110006F1300086F1300086F1300086F130008B7
:100120006F1300086F1300086F1300086F130008A7
:1001300000F002F800F062F80AA090E8000C824497
:100140008344AAF10107DA4501D100F057F8AFF274
:10015000090EBAE80F0013F0010F18BFFB1A43F0A5
:1001600001031847343A0000543A00000A444FF0A3
:10017000000C10F8013B13F0070408BF10F8014B06
:100180001D1108BF10F8015B641E05D010F8016B4B
:10019000641E01F8016BF9D113F0080F1EBF10F8AF
:1001A000014BAD1C0C1B09D16D1E58BF01F801CBD2
:1001B000FAD505E014F8016B01F8016B6D1EF9D555
:1001C0009142D6D37047000000230024002500266A
:1001D000103A28BF78C1FBD8520728BF30C148BFAA
:1001E0000B607047642903F05980732903F0818103
:1001F000002070471FB51FBD10B510BD03F094F966
:100200001146FFF7F7FF00F009F803F0B2F903B465
:10021000FFF7F2FF03BC01F039FB000002F040F8E9
:100220004FF4FA6001F0D0F802F096F801E181484D
:100230000068002840D101F022FD7F484078CD2899
:100240003AD17EA17E4801F083FA01F018FD7A4888
:100250000078CD2803D07B49774802F08DF97AA148
:10026000774801F075FA01F00AFD73480078CD284F
:1002700003D07649704802F07FF975A1704801F00B
:1002800067FA01F0FCFC6C480078CD2803D0714976
:10029000694802F071F970A1694801F059FA01F05A
:1002A000EEFC65480078CD2803D06C49624802F026
:1002B00063F901205F4908605E480068012874D135
:1002C0001FE040215F4802F0ACF8322001F07CF8DA
:1002D0000020634908600BE00521624802F08EF8B7
:1002E000142001F071F85E480068401C5C49086009
:1002F0005B4800680228EFDB5B480078012800D1EA
:1003000000E0DEE700BF1FE04021504802F089F81E
:10031000322001F059F80020514908600BE0052116
:10032000504802F06BF8142001F04EF84C48006879
:10033000401C4B4908604A4800680228EFDB4A48E5
:100340000078022800D100E0DEE700BF1FE0402176
:10035000404802F066F8322001F036F800204049AB
:1003600008600BE005213F4802F048F8142001F036
:100370002BF83B480068401C394908603848006841
:100380000228EFDB38480078032800D100E0DEE7E0
:1003900000BF20E04021314802F043F8322001F054
:1003A00013F800202E4908600CE03CE005212D48A0
:1003B00002F024F8142001F007F829480068401CD6
:1003C00027490860264800680228EFDB26480078A5
:1003D000042800D100E0DDE700BF1FE040212348F2
:1003E00002F01FF8322000F0EFFF00201C490860E7
:1003F0000BE005211B4802F001F8142000F0E4FF97
:1004000017480068401C1649086015480068022813
:10041000EFDB15480078052800D100E0DEE700BFDB
:10042000002004490860FF224FF48051104802F078
:1004300083FFFCE608000020F304002031000000E8
:10044000004400408400002032000000C40000206E
:1004500033000000040100203400000044010020AB
:10046000040000207F0000200602002084010020FC
:100470007C1600200CB50020019000906C480068AC
:1004800040F480306A49086000BF6948006800F4A1
:10049000003000900198401C0190009818B9019814
:1004A000B0F5A06FF1D16248006800F4003010B1DF
:1004B0000120009001E0002000900098012843D125
:1004C0005C48006840F010005A490860084600681F
:1004D00020F0030008600846006840F00200086051
:1004E000534840685249486008464068486008469A
:1004F000406840F4806048600846406820F47C1002
:1005000048600846406840F4E810486008460068C3
:1005100040F08070086000BF4548006800F000703F
:100520000028F9D04248406820F003004049486064
:100530000846406840F00200486000BF3C48406800
:1005400000F00C000828F9D10CBD10B5FFF792FFA0
:1005500010BD10B53648006840F00100344908600D
:1005600008464068344908403149486008460068F8
:10057000324908402E4908600846006820F480206F
:1005800008600846406820F4FE0048604FF41F00F1
:100590008860FFF7DAFF4FF000602949086010BD5E
:1005A00010B5002100200022214B5B6803F00C01F4
:1005B00021B1042906D0082928D107E0214B224C7B
:1005C000236027E01F4B204C236023E0184B5B681F
:1005D00003F47010164B5B6803F48032022303EBC4
:1005E000904022B9194B4343174C23600DE0104B48
:1005F0005B6803F4003323B1144B4343124C236074
:1006000003E0104B4343104C236003E00D4B0E4CB2
:10061000236000BF00BF064B5B68C3F303130C4CA1
:10062000E15C094B1B68CB40074C236010BD000008
:1006300000100240002002400000FFF8FFFFF6FE1D
:1006400008ED00E000127A00C401002000093D001E
:10065000C801002031490143314A1160704770B52B
:10066000002100230F22C47804B32D4C246804F425
:10067000E064C4F5E064210AC1F10403CA4044788F
:1006800004FA03F18478144021430901254C0678CB
:10069000A155047804F01F050124AC4005786D11C4
:1006A000AD0005F1E025C5F8004109E0047804F04B
:1006B0001F050124AC401C4D0678761145F82640F4
:1006C00070BD1A4A0A400243154B1B1F1A6070473F
:1006D00039B1134A121D12680243114B1B1D1A60D7
:1006E00006E00F4A121D126882430D4B1B1D1A6053
:1006F0007047042808D14FF0E021096941F0040156
:100700004FF0E022116107E04FF0E021096921F08C
:1007100004014FF0E0221161704700000000FA056B
:100720000CED00E000E400E080E100E080FFFF1F4E
:10073000002044490860091D0860091D0860091D62
:10074000086041483F4914310860704700213D4925
:100750008279002A3AD00A46126803689A430B4607
:100760001A600A1D126803689A430B1D1A60027909
:1007700011440A6803681A430A60324A0832126850
:1007800003689A432F4B08331A601A1D12680368D6
:100790009A432C4B0C331A604279102A0ED11A1F3F
:1007A000126803681A43274B08331A601A1D12682F
:1007B00003681A43234B0C331A600DE02149427938
:1007C00011440A6803681A430A6005E0027911447B
:1007D0000A6803689A430A6070470021016001714A
:1007E0000C2141710021817170471649103109684F
:1007F0000143144A10321160704701460020114A2B
:10080000143212680A400AB1012000E0002070474B
:100810000C49143108607047014600200022094B42
:100820001B6803EA0102074B14331B680B4013B12A
:100830000AB1012000E0002070470249143108602D
:100840007047000000040140FFFF0F0010B5044690
:10085000CC48844208D10121042000F02DFB002166
:10086000042000F029FB46E0C748844208D101215A
:10087000082000F021FB0021082000F01DFB3AE0D9
:10088000C248844208D10121102000F015FB00214C
:10089000102000F011FB2EE0BD48844208D1012158
:1008A000202000F009FB0021202000F005FB22E0C1
:1008B000B848844208D10121402000F0FDFA00210F
:1008C000402000F0F9FA16E0B348844208D1012133
:1008D000802000F0F1FA0021802000F0EDFA0AE01B
:1008E000AE48844207D10121801500F0E5FA0021CD
:1008F000A01500F0E1FA10BD10B50121084600F086
:10090000DBFA0021012000F0D7FA10BD2DE9F041FB
:10091000024600250026002000230024002791F82D
:1009200003C00CF00F0591F803C00CF0100CBCF1E3
:10093000000F03D091F802C04CEA050591F800C001
:10094000BCF1000F31D0146800202BE04FF0010CF7
:100950000CFA00F3B1F800C00CEA03069E4220D165
:1009600083004FF00F0C0CFA03F7BC4305FA03FCAD
:100970004CEA040491F803C0BCF1280F06D14FF0F3
:10098000010C0CFA00FCC2F814C00AE091F803C094
:10099000BCF1480F05D14FF0010C0CFA00FCC2F875
:1009A00010C0401C0828D1D31460B1F800C0BCF1BD
:1009B000FF0F34DD546800202EE000F1080C4FF0EA
:1009C000010808FA0CF3B1F800C00CEA03069E42D5
:1009D00021D183004FF00F0C0CFA03F7BC4305FA4A
:1009E00003FC4CEA040491F803C0BCF1280F05D1C4
:1009F00000F1080C08FA0CF8C2F8148091F803C052
:100A0000BCF1480F07D100F1080C4FF0010808FABB
:100A10000CF8C2F81080401C0828CED35460BDE802
:100A2000F0814FF6FF710180022181700421C170B5
:100A300070470246002093680B400BB1012000E094
:100A4000002070470146886880B270470246002047
:100A5000D3680B400BB1012000E000207047014635
:100A6000C86880B2704701617047416170470AB140
:100A7000016100E041617047C16070474FF480320E
:100A80000A4382618161826182698269704702469C
:100A90000020434B18684FF68073184040EA02105C
:100AA00008433F4B186070473E49C8617047F0B536
:100AB0000A46002300240021002500F00046B6F17C
:100AC000004F02D1364EF16901E0354E7168C0F336
:100AD000034583B200F44016B6F5401F08D121F05B
:100AE00070612F4E766826F070662D4F7E6012E0A2
:100AF00000F48016B6F5801F06D1032606FA05F429
:100B0000A14341F0706106E0460D360103FA06F696
:100B1000B14341F0706122B1460D360103FA06F689
:100B2000314300F00046B6F1004F02D11C4EF16196
:100B300001E01B4E7160F0BD30B500228B071C0F29
:100B40000F2303FA04F2164B08338C1053F82430A9
:100B50009343134C08348D1044F8253023468C10F1
:100B600053F824308C07240F00FA04F423430C4C70
:100B700008348D1044F8253030BD0A49DC31086056
:100B80007047000000080140000C014000100140C7
:100B90000014014000180140001C014000200140E9
:100BA0000000014000002042DF48006840F00100E2
:100BB000DD49086008464068DC490840DA49486079
:100BC00008460068DA490840D749086008460068C6
:100BD00020F4802008600846406820F4FE00486049
:100BE0004FF41F0088607047CF49096821F48031B5
:100BF000CD4A11601146096821F480211160B0F5D9
:100C0000803F03D0B0F5802F0ED106E0C6490968B9
:100C100041F48031C44A116007E0C349096841F4D6
:100C2000A021C14A116000E000BF00BF704710B5AD
:100C300001460022002300204A11012A02D1BA4CA9
:100C4000236806E0022A02D1B74C236A01E0B64CC1
:100C5000636A01F01F02012494401C400CB1012082
:100C600000E0002010BD38B50020009000240025D1
:100C700000BF3120FFF7DBFF05460098401C0090C5
:100C80000098B0F5A06F01D0002DF2D03120FFF711
:100C9000CEFF08B1012400E00024204638BD014603
:100CA0000020A14A106820F0F80040EAC10010605E
:100CB0007047A04908607047024600209A4B586868
:100CC00020F47C1042EA01031843974B58607047A8
:100CD00098490866704701460020934A506820F002
:100CE00003000843506070478F48406800F00C00D4
:100CF0007047014600208C4A506820F0F0000843FD
:100D00005060704701460020874A506820F4E06038
:100D100008435060704701460020834A506820F421
:100D2000605040EAC1005060704729B17E4A527A53
:100D300002437D4B5A7204E07B4A527A82437A4BDB
:100D40005A7270477B49D8310860704701460020CD
:100D5000754A506820F440400843506070470021B5
:100D6000714A20321170704A82F82010012802D096
:100D700004280AD104E001216B4A2032117005E0F9
:100D80000521694A2032117000E000BF00BF7047A2
:100D90006949086070476449096A0143624A1162FF
:100DA0007047654944390860704730B5002100221A
:100DB000002400235C4D6D6805F00C0121B104296D
:100DC00005D0082923D105E05C4D056022E05B4D8C
:100DD00005601FE0544D6D6805F47012524D6D684A
:100DE00005F48034022505EB92421CB9544D55435D
:100DF00005600BE04C4D6D6805F400351DB1504D9C
:100E00005543056002E04D4D5543056002E04B4DF2
:100E1000056000BF00BF444D6D6805F0F001090991
:100E2000484D6B5C0568DD4045603F4D6D6805F4DD
:100E3000E061090A434D6B5C4568DD4085603A4DD1
:100E40006D6805F46051C90A3E4D6B5C4568DD4034
:100E5000C560354D6D6805F44041890B3A4D6B5CBA
:100E6000C568B5FBF3F5056130BD29B12E4A52695D
:100E700002432D4B5A6104E02B4A526982432A4BAC
:100E80005A61704729B1284A92690243264B9A61F8
:100E900004E0254A92698243234B9A61704729B145
:100EA000214AD2690243204BDA6104E01E4AD2692A
:100EB00082431D4BDA61704729B11B4AD268024355
:100EC000194BDA6004E0184AD2688243164BDA60A4
:100ED000704729B1144A12690243134B1A6104E0A6
:100EE000114A12698243104B1A6170471249403906
:100EF000086070470F49C86470470B49C871704754
:100F00000948406A40F080700749486270470146CE
:100F10000020054A92680A400AB1012000E0002042
:100F20007047014988727047001002400000FFF8C6
:100F3000FFFFF6FE000042428004424200127A00A7
:100F400000093D00D8010020E801002010B504464A
:100F5000FB48844209D101218803FFF7ADFF00213E
:100F60004FF48040FFF7A8FF32E0F648844209D1F1
:100F700001214804FFF7ADFF00214FF40030FFF7D7
:100F8000A8FF25E0F048844209D101218804FFF739
:100F9000A0FF00214FF48020FFF79BFF18E0EB48F3
:100FA000844209D10121C804FFF793FF00214FF4C7
:100FB0000020FFF78EFF0BE0E548844208D10121B5
:100FC0000805FFF786FF00214FF48010FFF781FF2F
:100FD00010BD2DE9F04786B005460E460024A24616
:100FE00000BFA1460027B08900B100BF2F462C8A60
:100FF0004CF6FF700440F08804432C82AC894EF616
:10100000F3100440B08831890843718908430443D0
:10101000AC81AC8A4FF6FF400440B0890443AC82F7
:1010200001A8FFF7C2FEC648874202D1DDF810A032
:1010300001E0DDF80CA0A88900F4004040B10AEB03
:10104000CA0000EB0A1031684900B0FBF1F807E074
:101050000AEBCA0000EB0A1031688900B0FBF1F816
:101060006420B8FBF0F004012009642101FB108921
:10107000A88900F4004040B1322000EBC900B0FB69
:10108000F1F000F00700044308E0322000EB091003
:101090006421B0FBF1F000F00F0004432C8106B096
:1010A000BDE8F0874FF41651016000218180C180B6
:1010B00001810C21418100218181704710B50246D8
:1010C0000020108A4FF2FF0318400B884C882343FE
:1010D0008C882343CC8823431843108210BD002101
:1010E000018041808180C180704721B1828942F4B2
:1010F0000052828104E082894DF6FF731A4082819A
:101100007047F0B50346002400260025002040F675
:101110006A17B94200D100BF1846C1F3421401F06A
:101120001F06012707FA06F5012C01D10C3004E057
:10113000022C01D1103000E014301AB107682F439F
:10114000076002E00768AF430760F0BD1AB1838A09
:101150000B43838202E0838A8B4383827047028A37
:101160004FF6F0731A400282028A0A4302827047E5
:1011700082894FF2FF731A40828182890A438281F9
:10118000704721B1828942F00202828104E08289A3
:101190004FF6FD731A4082817047028A4FF6DF7363
:1011A0001A400282028A0A430282704721B1028AEF
:1011B00042F48042028204E0028A4BF6FF731A4036
:1011C00002827047C1F30802828070470146888816
:1011D000C0F308007047818941F0010181817047A7
:1011E000028BD2B20283028B42EA01220283704751
:1011F000028B02F47F420283028B0A430283704710
:1012000021B1828A42F02002828204E0828A4FF673
:10121000DF731A408282704721B1828A42F0100245
:10122000828204E0828A4FF6EF731A40828270470E
:1012300021B1828A42F00802828204E0828A4FF65B
:10124000F7731A408282704721B1828942F40042CA
:10125000828103E08289C2F30E028281704721B14C
:10126000828A42F40062828204E0828A4FF2FF7333
:101270001A4082827047828A4FF6FB731A4082823C
:10128000828A0A438282704721B1828A42F0020236
:10129000828204E0828A4FF6FD731A408282704790
:1012A00002460020B1F5007F00D100BF13880B403B
:1012B0000BB1012000E00020704701F40072B2F58C
:1012C000007F00D100BFCA430280704770B502465C
:1012D000002400230025002040F66A16B14200D108
:1012E00000BFC1F3421501F01F03012606FA03F304
:1012F000012D02D19689334006E0022D02D1168AD3
:10130000334001E0968A33400C12012606FA04F4B9
:101310001688344013B10CB1012000E0002070BDEC
:1013200010B50022002340F66A14A14200D100BF8C
:101330000A1201249440A3B2DC43048010BD0000D3
:10134000003801400044004000480040004C00408C
:10135000005000400948804709480047FEE7FEE783
:10136000FEE7FEE7FEE7FEE7FEE7FEE7FEE7FEE755
:1013700004480549054A064B70470000530500081C
:101380003101000830270020302D002030290020B6
:101390003029002010B504466FF00400FFF7A9F9CA
:1013A000E11704EB5171C1F3C701234A11701046D4
:1013B000007800EB4001C1EBC0104FF6FF7101EA6D
:1013C000C0001E49088010BD01461C4A12884A43CD
:1013D0004FF0E0235A6100229A6101221A6100BF96
:1013E0004FF0E022106900F001021AB100F48032DF
:1013F000002AF5D000224FF0E0231A619A6170476D
:1014000001460D4A12784A434FF0E0235A61002208
:101410009A6101221A6100BF4FF0E022106900F0CA
:1014200001021AB100F48032002AF5D000224FF0F8
:10143000E0231A619A617047EC010020EE01002060
:1014400008B501211020FFF71DFD4FF40050ADF845
:10145000000010208DF8030003208DF8020069467B
:101460000948FFF753FA01200849086008BD10B584
:101470000020064908609620FFF7A6FF01200449D6
:10148000C1F8B40110BD000000100140B4012242B7
:101490000000224210B5044621464848FFF792FE5C
:1014A00000BF40214548FFF7FBFE0028F9D0204649
:1014B00010BD10B586B00446012144F20500FFF7C7
:1014C000E1FC4FF40070ADF8140003208DF8160015
:1014D00018208DF8170005A93948FFF717FA4FF4BF
:1014E0008060ADF8140004208DF8170005A9344879
:1014F000FFF70CFA25208DF8000000208DF8010080
:1015000001208DF802008DF803006846FFF7A7F868
:1015100001940020ADF80800ADF80A00ADF80C0009
:10152000ADF810000C20ADF80E0001A92348FFF71C
:1015300050FD012240F225512048FFF7E2FD012134
:101540001E48FFF7D2FD06B010BD704710B540F23F
:1015500025511A48FFF7BAFE70B31848FFF736FE58
:10156000C4B218480078E8B917480068552809D16E
:10157000512C07D1012015490880552014490870C5
:101580005120487012481149098844540F48008876
:10159000401C0E49088008460088372802D10120E7
:1015A00008490870084804602046FFF7CEFF40F263
:1015B00025510248FFF7B4FE10BD0000003801407D
:1015C000000801400C000020F40100200E00002063
:1015D0004C02002010B586B0044601214804FFF7F4
:1015E0005EFC01210520FFF74DFC0420ADF814003E
:1015F00003208DF8160018208DF8170005A9A048C3
:10160000FFF784F90820ADF8140004208DF81700C6
:1016100005A99B48FFF77AF926208DF800000120E4
:101620008DF801008DF802008DF803006846FFF781
:1016300016F801940020ADF80800ADF80A00ADF8E6
:101640000C00ADF810000C20ADF80E0001A98D487B
:10165000FFF7BFFC012240F225518A48FFF751FDF8
:1016600001218848FFF741FD06B010BD10B540F2DA
:1016700025518448FFF72AFEF0B140F225518148F8
:10168000FFF74EFE7F48FFF7A1FDC4B27E480088F9
:10169000C0F30E0040F6FF7188420DDA7A490988DE
:1016A000C1F30E00411C784A128861F30E0276499C
:1016B0000A80A1F580510C5440F224417148FFF793
:1016C00005FE012812D108216E48FFF7F6FD6D488E
:1016D000FFF77CFD6C48008820F4004000F50040D6
:1016E000694908806748FFF771FDC4B210BDF0B5C5
:1016F00003460D461646002729460A2E03D0002031
:1017000008702846F0BD33B9302001F8010B0020E5
:1017100008702846F6E7002B03DA2D2001F8010BAC
:101720005B4242F210720DE093FBF2F404B937B160
:1017300004F1300001F8010B04FB123301270A20E9
:1017400092FBF0F2002AEFDC002008702846D9E76F
:101750000FB470B586B006460CA8019073E00B98E4
:1017600000785C281CD10B98401C0B9000786E28E8
:1017700009D072280FD10D213046FFF723FD0B98B9
:10178000401C0B900BE00A213046FFF71BFD0B9825
:10179000401C0B9003E00B98401C0B9000BF4BE0EB
:1017A0000B980078252840D10B98401C0B900078AE
:1017B000642818D0732833D1019810C801900BE029
:1017C00021783046FFF7FEFC00BF80213046FFF74E
:1017D00067FD0028F9D0641C20780028F0D10B9810
:1017E000401C0B9020E0019820C801900A2202A919
:1017F0002846FFF77CFF02AC0BE021783046FFF76C
:10180000E1FC00BF80213046FFF74AFD0028F9D0F7
:10181000641C20780028F0D10B98401C0B9003E04A
:101820000B98401C0B9000BF06E00B9810F8011BB2
:101830000B903046FFF7C6FC00BF80213046FFF713
:101840002FFD0028F9D00B980078002887D106B02A
:1018500070BC5DF814FB70B505460E4600240CE024
:10186000295D0848FFF7AEFC00BF80210548FFF75F
:1018700017FD0028F9D0601C84B2B442F0DB70BDC3
:1018800000080140004400407C260020014600BFC3
:10189000704700BF334A128802F04002002AF9D094
:1018A000C2B2304B1B1D1A807047014600BF2D4845
:1018B000008800F020000028F9D02A48001D008888
:1018C000C0F30800704710B5044621462548FFF7CD
:1018D00079FC00BF40212348FFF7E2FC0028F9D043
:1018E000204610BD10B586B0044601218804FFF7DC
:1018F000D6FA01211120FFF7C5FA01211A48FFF796
:10190000D6F84FF48060ADF8140003208DF816006F
:1019100018208DF8170005A91448FEF7F7FF4FF4BB
:101920000060ADF8140004208DF8170005A90F48D9
:10193000FEF7ECFF01940020ADF80800ADF80A00B6
:10194000ADF80C00ADF810000C20ADF80E0001A9A8
:101950000448FFF73EFB01210248FFF7C6FB06B033
:1019600010BD0000004800401000140000100140AD
:1019700010B50446012C04D11021FE48FFF773F87E
:1019800003E01021FB48FFF770F810BD2DE9F0418E
:1019900006460C4615461F46F7480088C10BC9038A
:1019A000F54801803246F5A1F648FFF7D1FE1CB993
:1019B00015B90120BDE8F081B8B2FFF705FD00219F
:1019C000ED480088C0F30E00EF4A1154B4B1ADB138
:1019D0002146104601F09EFC08B1012000E00020E5
:1019E00040B92946E84801F095FC08B1012000E023
:1019F000002008B10120DDE70020DBE744B12146EB
:101A0000E14801F087FC08B10120D3E70020D1E7CD
:101A10002946DD4801F07EFC08B10120CAE700201C
:101A2000C8E710B540F6C413D8A2DAA1DAA0FFF7D0
:101A3000ADFF10BD10B52021CE48FFF714F84FF4CC
:101A4000FA70FFF7C1FC01E0FFF7EBFFC8230022AB
:101A5000D0A1D3A0FFF79AFF0028F5D010BD10B594
:101A6000044624B1012C0AD0022C18D10FE04FF407
:101A70007A73CCA2C7A1CEA0FFF788FF10BD4FF4A8
:101A80007A73C8A2C3A1CDA0FFF780FFF6E74FF499
:101A90007A73C4A2BFA1CCA0FFF778FFEEE70020C5
:101AA000ECE730B59FB004460D462B462246C9A14F
:101AB00001A801F081FB41F658330022B5A101A82D
:101AC000FFF764FF1FB030BD70B5A0B004460D46EF
:101AD00016462B462246C4A102A8009601F06CFBD4
:101AE00040F2DC530022ABA102A8FFF74FFF20B069
:101AF00070BD10B586B004460CB1012000E0002096
:101B00000246BFA101A801F057FB4FF4FA7300226F
:101B1000A0A101A8FFF73AFF06B010BDF0B5B9B01B
:101B200006460F4614461D46642120A801F02EFCEF
:101B300016B1012E10D107E03B46B5A2B5A120A8F1
:101B4000009401F039FB08E03B46B6A2B1A120A801
:101B5000009401F031FB00E000BF00BF052D06DA64
:101B600020AB2A46B0A102A801F026FB04E020AA7F
:101B7000B2A102A801F020FB4FF4FA73B3A285A131
:101B800002A8FFF703FF39B0F0BD70B5BCB0044642
:101B90000D461646FCB12B460122B0A11EA801F04D
:101BA0000BFB3246B2A1684601F006FB4FF4FA7314
:101BB000002278A11EA8FFF7E9FE50B14FF4FA7396
:101BC000002274A16846FFF7E1FE10B101203CB08D
:101BD00070BD0020FBE72B460022A0A11EA801F04B
:101BE000EBFA4FF4FA7300226AA11EA8FFF7CEFEAB
:101BF000EDE710B54FF4FA73002266A1A0A0FFF73D
:101C0000C5FE48B14FF4FA73A1A2A2A1A2A0FFF7AA
:101C1000BDFE08B1012010BD0020FCE72DE9F04118
:101C200086B007460C4615461E464FF000082FB1F9
:101C3000224685A15348FFF78BFD1CE0052E06DAEE
:101C4000AB1C324697A101A801F0B6FA04E0AA1C29
:101C500099A101A801F0B0FA4FF47A7300229AA179
:101C600001A8FFF793FE4FF47A73002297A1204654
:101C7000FFF78CFE8046404606B0BDE8F08110B507
:101C8000C820FFF7A1FB00240AE03F48005D91490E
:101C9000085591480068401C8F490860601C84B258
:101CA000C82CF2DB00208B49085533480088C10B53
:101CB000C90331480180008820F400412E4801808A
:101CC00010BD10B50120FFF753FEFFF7B3FE002053
:101CD000FFF7C5FE00BF8149A1F11000FFF7E1FE4B
:101CE0000028F8D010BD70B58AB04FF4FA73002206
:101CF00028A17BA0FFF74AFE4FF47A70FFF764FB40
:101D000000BF1D480088C10BC9031B480180002487
:101D100004E000201C490855601C84B2B4F5006F33
:101D2000F7DB6E482030A0F1100339A26FA10090BC
:101D300002A801F041FA02AA10A11248FFF708FD1B
:101D40004FF47A70FFF740FB00210B480088C0F386
:101D50000E000D4A115408480088C10BC9030648FB
:101D600001800CA1104601F0D5FA08B10126CCE0A3
:101D7000CAE00000000801407C26002025730D0AFF
:101D800000000000004400407C1600207265616481
:101D9000790000004F4B000041542B525354000077
:101DA000415400006E6F206368616E67650000003B
:101DB00041542B43574D4F44453D310041542B4333
:101DC000574D4F44453D320041542B43574D4F44EE
:101DD000453D330041542B43574A41503D22257322
:101DE000222C22257322000041542B43575341508B
:101DF0003D222573222C222573222C312C257300A1
:101E000041542B4349504D55583D25640000000076
:101E100054435000222573222C222573222C257333
:101E2000000000005544500041542B434950535486
:101E30004152543D25642C257300000041542B432E
:101E4000495053544152543D25730000414C524572
:101E5000415920434F4E4E454354000041542B43BB
:101E600049505345525645523D25642C2573000078
:101E700041542B43495053544F3D257300000000FB
:101E800041542B4349504D4F44453D310000000023
:101E90003E0000000D0A000041542B4349505345B9
:101EA0004E44000041542B43495053454E443D2578
:101EB000642C25640000000041542B4349505345D5
:101EC0004E443D25640000003E20000053454E4432
:101ED000204F4B00F30400201400002034030020A6
:101EE00041542B4349504D55583D300041542B43EC
:101EF000495053544152543D222573222C222573BC
:101F0000222C25730D0A00000026AFF2C0017C4888
:101F100001F000FA08B1012000E0002046EA0005C7
:101F200078A1774801F0F6F908B1012000E000201F
:101F300000B10025002D3FF4E4AE4FF4FA73002207
:101F4000AFF2B011AFF2C800FFF720FD4FF4FA7303
:101F5000AFF2C402AFF2C401AFF2C400FFF716FD46
:101F60000AB070BD70B59AB00546642101A801F0B1
:101F70000DFA012D02D0022D0CD105E063A26EA155
:101F800001A801F019F906E077A26BA101A801F000
:101F900013F900E000BF00BF4FF4FA730022AFF264
:101FA0000C21AFF2C400FFF7F1FC4FF4FA70FFF719
:101FB0000BFA00BF77480088C10BC9037548018040
:101FC000002404E000204E490855601C84B2B4F59A
:101FD000806FF7DB70A2AFF25C217948FFF7B8FBA6
:101FE0004FF47A70FFF7F0F900216A480088C0F3D7
:101FF0000E00434A11541146AFF2B41001F0D0F86C
:10200000AFF270213E4801F085F908B1012000E0EF
:10201000002048B9AFF2CC11394801F07BF908B182
:10202000012000E0002008B1012000E00020064669
:1020300034A1334801F06EF908B1012000E000201E
:1020400000B10026002EB5D04FF4FA730022AFF293
:10205000BC21AFF2D410FFF799FC4FF4FA73AFF242
:10206000D012AFF2D011AFF2D010FFF78FFC0523E2
:10207000002201A90120FFF7D1FD0523002251A173
:102080000120FFF7CBFD0523002255A10120FFF71A
:10209000C5FD0523002257A10120FFF7BFFD052341
:1020A00000225AA10120FFF7B9FD052300224BA110
:1020B0000120FFF7B3FD37480088C10BC90335483D
:1020C000018040F6B830FFF77FF9002131480088E1
:1020D000C0F30E000A4A11541146AFF2942001F0E9
:1020E0005FF83EA001F05CF8AFF25831044801F00F
:1020F00011F910B14AA001F053F81AB070BD0000F8
:102100007C1600204552524F520000007573723DFC
:102110006A756E652670617373776F72643D3139CD
:10212000393230323131267265715F747970653DB4
:102130005357495045000000474554202F4C6962D1
:1021400072617279536561745365727665722F7529
:102150007372496E666F3F257320485454502F3177
:102160002E310D0A000000007573723D736F6C61B3
:10217000722670617373776F72643D313939323012
:10218000323131267265715F747970653D535749FC
:10219000504500007C26002041542B4349505354A5
:1021A0004152543D22544350222C223139322E3197
:1021B00036382E3139312E33222C38303830000069
:1021C00000440040486F73743A203139322E313662
:1021D000382E312E3130373A313030300D0A000090
:1021E000557365722D4167656E743A206162630DA7
:1021F0000A000000436F6E74656E742D4C656E6747
:1022000074683A2033380D0A00000000436F6E6E88
:10221000656374696F6E3A20636C6F73650D0A00B5
:102220006C6F6720696E2073756363657373667581
:102230006C6C790D0A00000008B501210420FEF73E
:1022400021FE4FF4E060ADF8000002208DF802009E
:1022500010208DF803006946DC48FEF757FB01218A
:102260000820FEF70FFE4FF44840ADF800000220B2
:102270008DF8020010208DF803006946D448FEF75F
:1022800045FB4FF40050ADF8000002208DF802002D
:1022900004208DF803006946CD48FEF737FB08BDE2
:1022A00010B5FEF756F94820FFF774F84FF4E13007
:1022B000FFF790F9FFF7C0FF10BD1FB501210820FF
:1022C000FEF7E0FD01210846FEF736FC0220ADF8DE
:1022D0000C0028208DF80F0003A9BD48FEF716FB5F
:1022E0000220019000208DF8080008208DF80900D8
:1022F00001208DF80A0001A8FEF728FA07208DF8C2
:10230000000002208DF8010000208DF8020001205D
:102310008DF803006846FEF7A2F91FBD10B5AD4B5E
:102320001A681B1D18681B1D1968AB4C2270130A14
:102330006370130CA370130EE3702071030A6371B2
:10234000030CA371030EE37121720B0A63720B0C71
:10235000A3720B0EE37210BD10B50120FFF708FB4E
:10236000FFF768FB03E04FF4FA60FFF72DF8022057
:10237000FFF775FB0028F6D0FFF753FB03E04FF49F
:10238000FA60FFF721F895A197A0FFF78AFB0028D4
:10239000F5D003E04FF4FA60FFF716F8052394A296
:1023A00095A10020FFF7BAFB0028F3D003E04FF41B
:1023B000FA60FFF709F8FFF71CFC0028F7D010BD02
:1023C00070B504460D46FFF752F8142000F080FA6D
:1023D000052000F0D4FE2946204600F09BFC1A2080
:1023E00000F076FA0A2000F0CAFE00BF78480830F4
:1023F0000068C0F340000028F8D170BD70B50446F5
:102400000D46182000F064FA714808300068C0F3E7
:10241000400028B100F033F92946204600F09FFC27
:1024200070BD70B504460D4629462046FFF7C8FF2B
:1024300070BD70B504460D4629462046FFF7C0FF23
:1024400070BD017829B30179B02922D1417801B357
:10245000C178B1291DD18178F12902D101216A4ABF
:1024600011708178F22902D10221674A11708178B6
:10247000F32902D10321644A11708178F42902D131
:102480000421614A11708178F52902D105215E4A43
:102490001170704701460A78D2B191F83F20B02AF6
:1024A00016D14A78AAB191F83E20B22A11D1012062
:1024B000564A1279521C554B1A711A461279402A03
:1024C00001DD00221A71514A1279514B9A7000E0D5
:1024D0000020704710B505214E48FFF78FFF4E488A
:1024E0000078B8B1002413E04B480078012802D0EE
:1024F00003280AD104E005214848FFF792FF05E0D0
:1025000005214748FFF78DFF00E000BF00BF641CB6
:10251000032CE9DB10BD10B540214248FFF76EFFE8
:102520003A48807802280BD1002404E0052138487D
:10253000FFF777FF641C032CF8DB00203349887019
:1025400010BD002012E000210DE0374A374B1B6818
:10255000D25C374B03EB80135A54344A1268521C36
:10256000324B1A60491C4029EFDB401C3F28EADB54
:1025700000222E4B1A60704710B50246012003E07E
:10258000431ED35C0B54401C1378022404EB43031A
:102590008342F5DC10BD10B5012080F3108800BF28
:1025A0000220FEF74AF91B48FFF74BFF19480021AC
:1025B0000160017140211B4800F0C6FE0220FEF7B9
:1025C0003CF9002080F3108800BF10BD00080140D6
:1025D000000C0140E8F7FF1FBE26002031323334E3
:1025E0003536373839300000622D2D343431000053
:1025F00038303830000000003139322E3136382E74
:102600003139312E31000000060200202000002068
:102610007A0000207F000020050200206B000020CF
:10262000750000207E260020F30400200802002010
:10263000BB0500201A48806940F0100018498861E5
:102640001848006820F0F000164908600846006845
:1026500040F0300008600846006940F00200086160
:1026600070471048406940F002000E4948617047C9
:102670000C48006940F002000A490861704710B533
:102680000848406940F00200064948619620FEF77C
:102690009BFE0448006940F002000249086110BD39
:1026A000001002400010014070B504460D46FE487F
:1026B000006840F48040FC49086000BF204600F0FC
:1026C00093FC012000F08AFC284600F0C2FCF6488A
:1026D000001F006840F48040F349091F086070BD86
:1026E00070B50446F048006840F48040EE49086048
:1026F00044F08004204600F077FC012000F06EFCDE
:1027000000F00BFD0546E848001F006840F48040DB
:10271000E549091F0860284670BD70B504460E469D
:102720002546E248C08940EA053085B2294607209F
:10273000FFF7BAFF31460820FFF7B6FF70BD70B54E
:1027400004460E462546D948C08940EAC51085B2E0
:1027500029460720FFF7A8FF31460920FFF7A4FF0D
:1027600070BD70B504462546D048C08940EA0530A2
:1027700085B229460720FFF797FF0820FFF7B0FF33
:102780000546284670BD10B5002407E0C74830F85C
:1027900014102046FFF788FF601CC4B2082CF5DB3C
:1027A0000A2407E0C14830F814102046FFF77CFFE8
:1027B000601CC4B2102CF5DB002407E0BC4830F8E4
:1027C00014102046FFF7A9FF601CC4B2102CF5DBE3
:1027D000002407E0B74830F814102046FFF7AFFF99
:1027E000601CC4B2052CF5DB10BD2DE9F041AF48EB
:1027F000C08B40F6020240EA02010F20FFF754FFAF
:1028000000BF0F20FFF76CFF044640F60200204097
:102810000028F6D10E20FFF763FF0446C4F300152D
:1028200015B10420BDE8F0810A20FFF79AFF0446A5
:10283000C4F300170FB10420F4E74FF498410C20C3
:10284000FFF732FF4FF478410220FFF766FF984808
:10285000008840F460410020FFF75FFF9348C08B81
:1028600040F480510F20FFF71FFF00BF0F20FFF73C
:1028700037FF044604F480500028F7D18B48018BC1
:102880000C20FFF711FF8A4881880220FFF745FFDF
:10289000874801880020FFF740FF8448C08B40F044
:1028A00004010F20FFF700FF00BF0F20FFF718FF04
:1028B000044604F004000028F7D10E20FFF710FFB3
:1028C0000446C4F300260EB10420ABE70020A9E7BC
:1028D00010B504467448006840F4804072490860AE
:1028E000204600F081FB7048001F006840F48040E3
:1028F0006D49091F086010BD2DE9F05F06466E495D
:10290000304600F0AFFE8246504600F06DFFC4B284
:10291000204600F089FF83464FF07E5100F0CCFF47
:102920008146514601F094F807464FF08F413846F2
:1029300000F0C2FF814600F057FF1FFA80F8142014
:10294000FFF7C6FF5948C088C0F30E05294603208B
:10295000FFF7AAFE55488089C0F30B0529460620DB
:10296000FFF7A2FE5549304600F072FF06D24F48ED
:1029700000894EF6FF7100EA010503E04B4800892B
:1029800040F4805529460420FFF78EFE47484088D2
:1029900000F47F4545EA04010120FFF785FE41462A
:1029A0000220FFF781FE00210220FFF7C8FEBDE8EC
:1029B000F09F70B5FF254FF6FF763D48808840F0C8
:1029C00010010220FFF7A9FE00BF3948C08B40F07C
:1029D00001010F20FFF7A1FE00BF0F20FFF7C1FE8E
:1029E00000F0010424B13000A6F101018EB2F4D14F
:1029F0000F20FFF7B6FEC0F34804BA2C03DDC62C47
:102A000001DA052070BD2800A5F10101CDB2DCD1AD
:102A10000420F7E710B504462348006840F48040DE
:102A200021490860202000F0DFFA200E00F0DCFAD7
:102A3000C4F3074000F0D8FAC4F3072000F0D4FA3A
:102A4000E0B200F0D1FA1848001F006840F480405E
:102A50001549091F0860002010BD10B5044600F09C
:102A60006BFA1148001F006840F480400E49091FAE
:102A70000860081D006840F40040091D08607020CF
:102A8000FFF726FF0A2000F07AFBFFF77CFE0A2002
:102A900000F075FB0A48FFF7BDFF012000F06FFB57
:102AA0002046FFF729FF0DE0140C01404E3B0008C3
:102AB0006E3B00088E3B0008CDCC4C4100005744D3
:102AC00000C575340A2000F05AFBFFF78EFE10BDDA
:102AD00070B50024F948C0894FF2CF710840044313
:102AE00021460720FFF7E0FD0920FFF7F9FD054625
:102AF000284670BD10B504461420FFF7E9FE1420E7
:102B000000F03DFBED48C0894FF6FE7200EA02017D
:102B10000720FFF7C9FD322C2AD004DC022C07D095
:102B20000A2C44D114E0642C31D0962C3FD13DE0E6
:102B300046F221610020FFF7B7FD41F6D4010A20DB
:102B4000FFF7B2FD4FF205510020FFF7E6FD3AE036
:102B500041F221210020FFF7A7FD41F6D4010A2010
:102B6000FFF7A2FD4FF206710020FFF7D6FD2AE025
:102B700023210020FFF798FD41F6D0010A20FFF73E
:102B800093FD4FF206610020FFF7C7FD1BE02121F6
:102B90000020FFF789FD41F6D4010A20FFF784FDEC
:102BA0004FF206710020FFF7B8FD0CE00BE0C348C0
:102BB000C08940F001010720FFF776FD142000F0E6
:102BC000DEFA012010BD00BFBC48C08940F0010101
:102BD0000720FFF769FD142000F0D1FA0020F1E78B
:102BE00070B504461420FFF773FEB548408B00F41F
:102BF0007F45601E284381B20D20FFF78EFDB0484F
:102C0000808A4CF2FF0100EA010529460A20FFF7FD
:102C100084FD002070BD10B50446022C02D0042CA7
:102C20001BD109E0A548808B4BF6FB7200EA02013C
:102C30000E20FFF772FD12E0A048808B4BF6FB726E
:102C400000EA02010E20FFF768FD9C48808B40F0EF
:102C500004010E20FFF761FD01E0012010BD00BF5F
:102C60000020FBE770B50546964800884FF6807156
:102C700000EA01041420FFF72BFE052000F07FFA84
:102C8000092D3CD2DFE805F0050B11171D23292F74
:102C9000350044F001010020FFF751FD34E044F01D
:102CA00009010020FFF74BFD2EE044F00A0100204F
:102CB000FFF745FD28E044F061010020FFF73FFDEC
:102CC00022E044F02A010020FFF739FD1CE044F027
:102CD0001C010020FFF733FD16E044F02601002020
:102CE000FFF72DFD10E044F03E010020FFF727FD27
:102CF0000AE044F05F010020FFF721FD04E0052019
:102D000000F03DFA012070BD00BF052000F037FA49
:102D10000020F8E770B504460D466020FFF7D8FDA7
:102D2000012000F02CFA6848006840F480406649B1
:102D30000860402000F058F903E014F8010B00F09F
:102D400053F92800A5F10101CDB2F6D15E48001F6C
:102D5000006840F480405C49091F086070BD70B590
:102D600004460D46E020FFF7B3FD012000F007FA0E
:102D70005548006840F4804053490860C02000F086
:102D800033F903E000F099F904F8010B2800A5F1EC
:102D90000101CDB2F6D14C48001F006840F48040DC
:102DA0004949091F086070BD70B50446022C01DB5B
:102DB000072C01DD012070BD1420FFF789FD3F487D
:102DC00000894FF6F07100EA010545EA440040F041
:102DD00001010420FFF7A1FC0A2000F0FFF8012008
:102DE000FFF7BFFCC0F3C01080F00100E3E770B54F
:102DF0004FF6FF751820FFF76BFD3048008B4FF63C
:102E0000FF6200EA02010C20FFF74EFC0F20FFF7E3
:102E100067FC40F0010631460F20FFF745FC00BF7C
:102E20000F20FFF75DFC00F001042800A5F101016F
:102E30008DB201D0002CF3D1002D04DD0C20FFF762
:102E40004FFCC4B200E000241420FFF741FD2046EF
:102E500070BD10B5FFF7ADFD042800D110BD1420E2
:102E6000FFF736FD45210820FFF757FC40F27F2190
:102E70000120FFF752FC1148408B40F480610D2087
:102E8000FFF712FC0D48C08B40F400710F20FFF7D4
:102E90000BFC0020E2E710B51420FFF719FD4521D7
:102EA0000820FFF73AFC4FF605410120FFF735FCFB
:102EB000FFF77FFD042809D110BD00004E3B00083C
:102EC0006E3B00088E3B0008140C014018488088B7
:102ED00040F010010220FFF720FC1648C08B40F4A0
:102EE00000710F20FFF7E0FB0020E5E710B514208C
:102EF000FFF7EEFC4D210820FFF70FFC4FF60541D0
:102F00000120FFF70AFCFFF754FD042800D110BD93
:102F10000748808840F030010220FFF7FEFB05489B
:102F2000C08B40F400710F20FFF7BEFB0020EEE7DE
:102F30006E3B00084E3B00089448806940F0040056
:102F4000924988619248006820F0FF00904908602B
:102F50000846006840F088000860081D00688D4938
:102F600008408B49091D0860084600688A490843E3
:102F70008749091D086086480C30006843F6FC61EB
:102F8000084083490C3108600846006844F2030198
:102F900008437F490C31086070477D49091D096865
:102FA00021F00F017A4A121D116001280DD111463E
:102FB000096841F00801116075490C31096841F454
:102FC0008071734A0C32116007E07149091D09686C
:102FD00041F003016E4A121D1160704710B504469E
:102FE0002046FEF70DFA10BD70B5044600252DE011
:102FF00004F0800040B166481030006840F48070F2
:1030000063491031086007E061481430006840F4FB
:1030100080705F49143108600120FFF7DFFF5C48D2
:103020001030006840F40040594910310860012018
:10303000FFF7D4FF56481430006840F4004054496C
:10304000143108606006040E681CC5B2082DCFDB81
:1030500070BD70B5044600252CE004F4004040B17A
:103060004B481030006840F48070494910310860C6
:1030700007E047481430006840F480704449143138
:10308000086043481030006840F400404049103167
:1030900008600120FFF7A2FF3D481430006840F4AB
:1030A00000403B49143108604FF6FF7000EA4404C9
:1030B000681CC5B2102DD0DB70BD70B50024012096
:1030C000FFF76BFF002521E0314808300068C0F3AE
:1030D000002020B1012000EB4400C4B201E06006F2
:1030E000040E2B481030006840F40040284910318D
:1030F00008600120FFF772FF25481430006840F493
:103100000040234914310860681CC5B2082DDBDB80
:103110000020FFF742FF204670BD70B5002401205B
:10312000FFF73BFF002523E0194808300068C0F393
:10313000002020B1012000EB440084B203E04FF6F0
:10314000FF7000EA440412481030006840F4004068
:103150000F49103108600120FFF740FF0C48143080
:10316000006840F400400A4914310860681CC5B288
:10317000102DD9DB0020FFF710FF204670BD10B5E1
:1031800004462046FEF720F910BD00000010024062
:10319000000C0140F0FF0F000300403370470000B7
:1031A0000FB4044910B503AA029800F0A7F910BCA7
:1031B0005DF814FBF80100200FB41CB5074B06AAFC
:1031C0007B4469460090059800F069F90020694643
:1031D00000F078F91CBC5DF814FB0000010300004E
:1031E0002DE9F0410E460446002020622046E168A9
:1031F000884730B3252805D0D4E901219047206ABB
:10320000401CF2E7E168204600278847050018D0F7
:10321000A5F14100192802D820354FF40067324645
:10322000294620462760FCF7DDFF40B1012804D085
:10323000F61D26F007060836D8E7361DD6E72846DD
:10324000DAE7206ABDE8F08170B50C460546012A30
:1032500005D02878800600D5EA69002302E0012322
:1032600005E05B1C934202D2E05C0028F9D1A8691A
:10327000E618C01AA861286A184428622846AFF3E5
:10328000008004E0D5E9012114F8010B9047B44215
:10329000F8D32846AFF3008070BD00002DE9F0415F
:1032A0000646002410687529314616A510D0AFF3E4
:1032B0000080002802DA404213A507E031688A073F
:1032C00001D512A502E0490704D511A5012401E0AA
:1032D000AFF3008000210A2206F1240709E0B0FBC9
:1032E000F2FCB0FBF2F302FB1C00303078541846BD
:1032F000491C0028F3D123462A463046BDE8F04158
:1033000000F06FB8000000002D0000002B0000004E
:103310002000000030B505460B462A4613F8014B45
:1033200012F8010B08B1A042F8D01CB1002802D05D
:103330006D1CF1E7284630BD02F0FF0343EA03228B
:1033400042EA024200F002B84FF000020429C0F045
:10335000128010F0030C00F01B80CCF1040CBCF1C7
:10336000020F18BF00F8012BA8BF20F8022BA1EB19
:103370000C0100F00DB85FEAC17C24BF00F8012BFE
:1033800000F8012B48BF00F8012B70474FF00002F6
:1033900000B5134694469646203922BFA0E80C504B
:1033A000A0E80C50B1F12001BFF4F7AF090728BF26
:1033B000A0E80C5048BF0CC05DF804EB890028BFA2
:1033C00040F8042B08BF704748BF20F8022B11F0CB
:1033D000804F18BF00F8012B704770477047704747
:1033E00070472DE9F0470D4699469246044600F194
:1033F00024080168880604D5E06921F010012160E5
:1034000000E00120A84201DD471B00E00027A16980
:103410007A1902EB0900081AA0612078C00602D4CC
:103420002046AFF30080002608E0D4E901211AF815
:1034300006009047206A401C761C20624E45F4DB53
:103440002078C0060AD52046AFF3008006E0D4E914
:10345000012130209047206A401C2062381EA7F1CD
:103460000107F4DC07E0D4E9012118F805009047D2
:10347000206A401C2062281EA5F10105F3DC2046CD
:10348000AFF300802078000602D50220BDE8F08767
:103490000120FBE701694A1C02610878704700B50A
:1034A0008FB0CDE901310021059105497944CDE97D
:1034B000031011466846FFF793FE0FB000BD0000F1
:1034C000E5FFFFFF0A6802F8010B0A60704710B5BC
:1034D000436913B1AFF3008001E0FFF7B5FE0120AF
:1034E00010BD127800F124010A7000224A700122F6
:1034F000EDE711684FF0FF32E9E70000074B70B5C8
:103500000D467B44FFF7CBFF0446284600F008F841
:1035100010B14FF0FF3070BD204670BD8DE3FFFF4E
:10352000007B00F080007047754600F029F8AE4639
:1035300005006946534620F00700854618B020B5BF
:10354000FDF716FFBDE820404FF000064FF00007E2
:103550004FF000084FF0000B21F00701AC46ACE83B
:10356000C009ACE8C009ACE8C009ACE8C0098D46A8
:1035700070470446AFF300802046FCF748FE000089
:1035800000487047CC26002090EA010F48BF81F028
:10359000004100F16E82421A3CBF801A89184FEA3E
:1035A000D0524FF07F4C1CEA410FA2EBD15318BF11
:1035B0009CEA026F00F03B804FF0004C4CEA002088
:1035C0004CEA012121FA03FC10EB0C0C1ED202F193
:1035D000FF325FEA1C2040EBC25038BF70471CF03E
:1035E0007F0F4FEA400C18BFBCF17F4F38BF7047C8
:1035F000C3F12003994008BF20F00100BCF17F4FC8
:1036000038BF7047A0F1C04000F01DBA4FEA3C003F
:10361000000A40EBC25028BF1CF0FF0F4FEA400CDD
:10362000E6D018BFBCF17F4F38BF7047EAE79CEA8D
:10363000026F05D010EA5C0F08BF00F00040704731
:1036400010B500F0BAF900BF64FBBE3E401058BF91
:10365000C0F14040491058BFC1F140418142EFF3F1
:10366000008070474FF47F0C1CEAD0121EBF1CEA8A
:10367000D11392EA0C0F93EA0C0F00F0858090EAC8
:10368000010F48BF42F4807240F4000C41F4000086
:103690002CF07F4120F07F4000B58142A2EB030275
:1036A0000FF2081CACEB504EC0F100009EF800E099
:1036B0004FEA4E0E00FB0EFC38BF49004FEA2C1CAF
:1036C00002F5FA020CFB0EF34FEACE1E4FEA112C64
:1036D0004FEAC1210EEB635E42EB22420EFB0CFC73
:1036E0004FEA1C5300FB03114FEA112C4FEA013142
:1036F0000EFB0CFC4FEADC4C00FB0C11C14228BF56
:1037000009184CEB03335DF804EB10EB410143EB7C
:10371000C250B2F57C0F38BF704729D512F0F00FB8
:103720001CBF00F1C04000F0004070470081828360
:103730008485868788898B8C8D8E8F9192939596C0
:1037400097999A9C9D9FA0A2A3A5A7A8AAACAEB04A
:10375000B2B3B5B7B9BCBEC0C2C5C7C9CCCED1D44F
:10376000D7D9DCDFE2E6E9ECF0F3F7FAFE0000007F
:103770004FEA400C0CF1807CBCF17E4F28BF7047B3
:10378000B0F1C04000F05FB990EA010F0CEAD1132C
:1037900048BF42F48072624538BF634507D213F4D4
:1037A0007F0F16D080EA010000F00040704710B58E
:1037B00000F003F9097EFC3E00F005B880EA010044
:1037C00000F00040704780EA010000F0004000F087
:1037D0003AB912F47F0F04BF0248704780EA010033
:1037E00000F031B90000C07FC10DD1F19E0206DBAF
:1037F0004FEA002343F0004323FA02F070470042EF
:1038000007D54FEA4001B1F1FE4F02D24FF0000060
:10381000704710B500F0D1F849922480002070471D
:103820006FEA200070470000B0FA80F310FA03F24C
:10383000C3F19D030AD0D90501EB1220530638BF0E
:10384000704700F1010008BF20F001007047000040
:1038500050EA010C00F113801CF5000F58BFBCF5B5
:10386000000F01D48842704707D710F5000F58BFEA
:1038700011F5000F15D488427047894270471CF536
:10388000000F04D5BCF5000FF7D5814270474FF00B
:10389000807C1CEB400F38BF1CEB410F01D28142F2
:1038A000704710B500F089F8922449004FF000509D
:1038B0004FF08051FFF7CABE4FF47F0C1CEAD012C4
:1038C0001EBF1CEAD11392EA0C0F93EA0C0F00F012
:1038D000478090EA010F48BF42F480724FF0004CDD
:1038E0004CEA00204CEA012102EB0302A0FB011389
:1038F000A2F50002002918BF43F001035B0028BFB6
:103900004FEA330342EB22425FEA132C4CEBC250E6
:103910002EBFBCEB436FB2F57C0F70474FEA036CD0
:10392000BCF1004F08BF20F00100B2F57C0F38BF9A
:1039300070470BD582F0FF0212F5803FC8BF704779
:1039400000F1C040D8BF00F00040704700F5000C07
:103950005FEA4C0C48BF7047B0F1C04000F073B84C
:1039600090EA010F0CEAD11348BF42F4807262451D
:1039700038BF634504D280EA010000F00040704780
:1039800010B500F01AF800BF8900013E00F007B83A
:1039900000F009B85FEA410C5FEA1C6C08D080EACD
:1039A000010000F050B85FEA400C5FEA1C6CF6D1F1
:1039B0004FF00040A0F5800070470EF1020E2EF08F
:1039C000030E5EF8044B244204D44FEA4102B2F1E4
:1039D0007F4F11D84FEA4003B3F17F4F0CD80ED17F
:1039E0004FEAD07CB2F17F4F0CEB4C0C0CF1020C87
:1039F00008BF4CEBD17C04E04FF0080C01E04FEA2B
:103A0000D17C0CEB4C0324FA03F404F00704B4F16A
:103A1000040C06D20EEB840CBDE810404CF0010CF7
:103A20006047DFE80CF0070802024FF00040A0F505
:103A3000800010BD0846420018BFD2F1807288BFD6
:103A400000F0004010BDFF2141EAD050C005704792
:103A500080F0004090EA010F7FF59DAD81F00041BC
:103A600000F007B890EA010F48BF81F000413FF530
:103A700092AD421A04D882F00042A0EB0200114439
:103A80004FEAD0524FF07F4C1CEA410FA2EBD153CA
:103A900018BF9CEA026F4AD04FF0004C4CEA00205D
:103AA0004CEA012121FA03FCB0EB0C0C0FD412F00C
:103AB000FE0F36D05FEA4C001DD5001240EBC2501D
:103AC00038BF70471CF03F0F18BF70470BE0A2F1E2
:103AD00001025FEA1C2040EBC25038BF70471CF067
:103AE0007F0F18BF7047C3F12003994014BF401ED9
:103AF00020F00100704780084FEA122308BF70478A
:103B0000B0FA80FCA2EB0C02CCF1280C60FA0CF0AD
:103B100093EA122F04BF00EBC25070474FEAC37004
:103B20007047130A5FEADC1008BF7047F6E79CEAAB
:103B3000026F04D010EA5C0F08BF0020704710B578
:103B4000FFF73BFF40DFF63E81F000407047211257
:103B5000240A05B80000200A24000000110000001B
:103B60000000D418097000440008454CC02006F736
:103B7000000000F80711709901020F40C02AC5002B
:103B800081D20400250827010F005F1500005F03A4
:103B90000084000000000000B83B00080000002086
:103BA0000C0200006C010008343C00080C020020EC
:103BB000242B0000C8010008011C92101A01011AF0
:103BC00002011A03011A04011A05011A06011A0753
:103BD000011A08011A09011A0A011A0B011A0C012B
:103BE0001A0D011A0E011A0F011A100113B0B11E9D
:103BF000B1B0B0B1FF0512B31AB3051AFF0512B286
:103C000053B2B0063BF101020304023FF2023FF35C
:103C1000023FF40240F584A24A0468090102030449
:103C2000060708090C69104502040608F2C894FF4B
:043C3000FF3F000052
:0400000508000131BD
:00000001FF
